{"abi":[{"type":"constructor","inputs":[{"name":"_avsDirectory","type":"address","internalType":"address"},{"name":"_stakeRegistry","type":"address","internalType":"address"},{"name":"_delegationManager","type":"address","internalType":"address"}],"stateMutability":"nonpayable"},{"type":"function","name":"anchorHash","inputs":[{"name":"_anchorHash","type":"bytes32","internalType":"bytes32"},{"name":"_numberOfOperations","type":"uint256","internalType":"uint256"}],"outputs":[],"stateMutability":"nonpayable"},{"type":"function","name":"avsDirectory","inputs":[],"outputs":[{"name":"","type":"address","internalType":"address"}],"stateMutability":"view"},{"type":"function","name":"createAVSRewardsSubmission","inputs":[{"name":"rewardsSubmissions","type":"tuple[]","internalType":"struct IRewardsCoordinator.RewardsSubmission[]","components":[{"name":"strategiesAndMultipliers","type":"tuple[]","internalType":"struct IRewardsCoordinator.StrategyAndMultiplier[]","components":[{"name":"strategy","type":"address","internalType":"contract IStrategy"},{"name":"multiplier","type":"uint96","internalType":"uint96"}]},{"name":"token","type":"address","internalType":"contract IERC20"},{"name":"amount","type":"uint256","internalType":"uint256"},{"name":"startTimestamp","type":"uint32","internalType":"uint32"},{"name":"duration","type":"uint32","internalType":"uint32"}]}],"outputs":[],"stateMutability":"nonpayable"},{"type":"function","name":"deregisterOperatorFromAVS","inputs":[{"name":"operator","type":"address","internalType":"address"}],"outputs":[],"stateMutability":"nonpayable"},{"type":"function","name":"getOperatorRestakedStrategies","inputs":[{"name":"_operator","type":"address","internalType":"address"}],"outputs":[{"name":"","type":"address[]","internalType":"address[]"}],"stateMutability":"view"},{"type":"function","name":"getRestakeableStrategies","inputs":[],"outputs":[{"name":"","type":"address[]","internalType":"address[]"}],"stateMutability":"view"},{"type":"function","name":"newDIDOperation","inputs":[{"name":"_didSuffix","type":"bytes32","internalType":"bytes32"}],"outputs":[],"stateMutability":"nonpayable"},{"type":"function","name":"operatorHasMinimumWeight","inputs":[{"name":"operator","type":"address","internalType":"address"}],"outputs":[{"name":"","type":"bool","internalType":"bool"}],"stateMutability":"view"},{"type":"function","name":"operatorVerifiedAnchors","inputs":[{"name":"","type":"address","internalType":"address"},{"name":"","type":"bytes32","internalType":"bytes32"}],"outputs":[{"name":"","type":"bool","internalType":"bool"}],"stateMutability":"view"},{"type":"function","name":"operatorVerifiedDidOperations","inputs":[{"name":"","type":"address","internalType":"address"},{"name":"","type":"bytes32","internalType":"bytes32"}],"outputs":[{"name":"","type":"bool","internalType":"bool"}],"stateMutability":"view"},{"type":"function","name":"owner","inputs":[],"outputs":[{"name":"","type":"address","internalType":"address"}],"stateMutability":"view"},{"type":"function","name":"pause","inputs":[{"name":"newPausedStatus","type":"uint256","internalType":"uint256"}],"outputs":[],"stateMutability":"nonpayable"},{"type":"function","name":"pauseAll","inputs":[],"outputs":[],"stateMutability":"nonpayable"},{"type":"function","name":"paused","inputs":[{"name":"index","type":"uint8","internalType":"uint8"}],"outputs":[{"name":"","type":"bool","internalType":"bool"}],"stateMutability":"view"},{"type":"function","name":"paused","inputs":[],"outputs":[{"name":"","type":"uint256","internalType":"uint256"}],"stateMutability":"view"},{"type":"function","name":"pauserRegistry","inputs":[],"outputs":[{"name":"","type":"address","internalType":"contract IPauserRegistry"}],"stateMutability":"view"},{"type":"function","name":"recordedAnchors","inputs":[{"name":"","type":"uint256","internalType":"uint256"}],"outputs":[{"name":"","type":"bytes32","internalType":"bytes32"}],"stateMutability":"view"},{"type":"function","name":"registerOperatorToAVS","inputs":[{"name":"operator","type":"address","internalType":"address"},{"name":"operatorSignature","type":"tuple","internalType":"struct ISignatureUtils.SignatureWithSaltAndExpiry","components":[{"name":"signature","type":"bytes","internalType":"bytes"},{"name":"salt","type":"bytes32","internalType":"bytes32"},{"name":"expiry","type":"uint256","internalType":"uint256"}]}],"outputs":[],"stateMutability":"nonpayable"},{"type":"function","name":"renounceOwnership","inputs":[],"outputs":[],"stateMutability":"nonpayable"},{"type":"function","name":"rewardsInitiator","inputs":[],"outputs":[{"name":"","type":"address","internalType":"address"}],"stateMutability":"view"},{"type":"function","name":"setPauserRegistry","inputs":[{"name":"newPauserRegistry","type":"address","internalType":"contract IPauserRegistry"}],"outputs":[],"stateMutability":"nonpayable"},{"type":"function","name":"setRewardsInitiator","inputs":[{"name":"newRewardsInitiator","type":"address","internalType":"address"}],"outputs":[],"stateMutability":"nonpayable"},{"type":"function","name":"stakeRegistry","inputs":[],"outputs":[{"name":"","type":"address","internalType":"address"}],"stateMutability":"view"},{"type":"function","name":"transactionNumber","inputs":[],"outputs":[{"name":"","type":"uint256","internalType":"uint256"}],"stateMutability":"view"},{"type":"function","name":"transferOwnership","inputs":[{"name":"newOwner","type":"address","internalType":"address"}],"outputs":[],"stateMutability":"nonpayable"},{"type":"function","name":"unpause","inputs":[{"name":"newPausedStatus","type":"uint256","internalType":"uint256"}],"outputs":[],"stateMutability":"nonpayable"},{"type":"function","name":"updateAVSMetadataURI","inputs":[{"name":"_metadataURI","type":"string","internalType":"string"}],"outputs":[],"stateMutability":"nonpayable"},{"type":"function","name":"verifiedAnchors","inputs":[{"name":"","type":"bytes32","internalType":"bytes32"}],"outputs":[{"name":"","type":"bool","internalType":"bool"}],"stateMutability":"view"},{"type":"function","name":"verifiedDIDOperations","inputs":[{"name":"","type":"bytes32","internalType":"bytes32"}],"outputs":[{"name":"","type":"bool","internalType":"bool"}],"stateMutability":"view"},{"type":"function","name":"verifyAnchor","inputs":[{"name":"referenceTransactionNumber","type":"uint256","internalType":"uint256"},{"name":"anchoredHash","type":"bytes32","internalType":"bytes32"},{"name":"signature","type":"bytes","internalType":"bytes"}],"outputs":[],"stateMutability":"nonpayable"},{"type":"function","name":"verifyDIDOperation","inputs":[{"name":"didSuffix","type":"bytes32","internalType":"bytes32"},{"name":"signature","type":"bytes","internalType":"bytes"}],"outputs":[],"stateMutability":"nonpayable"},{"type":"event","name":"Anchor","inputs":[{"name":"anchorFileHash","type":"bytes32","indexed":false,"internalType":"bytes32"},{"name":"transactionNumber","type":"uint256","indexed":true,"internalType":"uint256"},{"name":"numberOfOperations","type":"uint256","indexed":false,"internalType":"uint256"}],"anonymous":false},{"type":"event","name":"AnchorVerified","inputs":[{"name":"anchorFileHash","type":"bytes32","indexed":false,"internalType":"bytes32"},{"name":"operator","type":"address","indexed":false,"internalType":"address"}],"anonymous":false},{"type":"event","name":"Initialized","inputs":[{"name":"version","type":"uint8","indexed":false,"internalType":"uint8"}],"anonymous":false},{"type":"event","name":"NewDIDOperation","inputs":[{"name":"didSuffix","type":"bytes32","indexed":false,"internalType":"bytes32"}],"anonymous":false},{"type":"event","name":"OwnershipTransferred","inputs":[{"name":"previousOwner","type":"address","indexed":true,"internalType":"address"},{"name":"newOwner","type":"address","indexed":true,"internalType":"address"}],"anonymous":false},{"type":"event","name":"Paused","inputs":[{"name":"account","type":"address","indexed":true,"internalType":"address"},{"name":"newPausedStatus","type":"uint256","indexed":false,"internalType":"uint256"}],"anonymous":false},{"type":"event","name":"PauserRegistrySet","inputs":[{"name":"pauserRegistry","type":"address","indexed":false,"internalType":"contract IPauserRegistry"},{"name":"newPauserRegistry","type":"address","indexed":false,"internalType":"contract IPauserRegistry"}],"anonymous":false},{"type":"event","name":"RewardsInitiatorUpdated","inputs":[{"name":"prevRewardsInitiator","type":"address","indexed":false,"internalType":"address"},{"name":"newRewardsInitiator","type":"address","indexed":false,"internalType":"address"}],"anonymous":false},{"type":"event","name":"Unpaused","inputs":[{"name":"account","type":"address","indexed":true,"internalType":"address"},{"name":"newPausedStatus","type":"uint256","indexed":false,"internalType":"uint256"}],"anonymous":false}],"bytecode":{"object":"0x6101006040523480156200001257600080fd5b5060405162002e9a38038062002e9a833981016040819052620000359162000151565b6001600160a01b0380841660a052808316608052600060c081905290821660e05283908390836200006562000072565b505050505050506200019b565b600054610100900460ff1615620000df5760405162461bcd60e51b815260206004820152602760248201527f496e697469616c697a61626c653a20636f6e747261637420697320696e697469604482015266616c697a696e6760c81b606482015260840160405180910390fd5b60005460ff908116101562000132576000805460ff191660ff9081179091556040519081527f7f26b83ff96e1f2b6a682f133852f6798a09c465da95921460cefb38474024989060200160405180910390a15b565b80516001600160a01b03811681146200014c57600080fd5b919050565b6000806000606084860312156200016757600080fd5b620001728462000134565b9250620001826020850162000134565b9150620001926040850162000134565b90509250925092565b60805160a05160c05160e051612c6a620002306000396000611448015260008181611c1c01528181611cd80152611dbb015260008181610305015281816117c90152818161185501526118cc0152600081816102c60152818161078101528181610af601528181610b4c01528181610ba701528181610c4601528181610cce0152818161130001526119070152612c6a6000f3fe608060405234801561001057600080fd5b50600436106101e55760003560e01c806394fb154a1161010f578063e2b33715116100a2578063f83ce62611610071578063f83ce62614610498578063fabc1cbc146104ab578063fc299dee146104be578063fce36c7d146104d157600080fd5b8063e2b337151461043c578063e481af9d1461044f578063f239e03414610457578063f2fde38b1461048557600080fd5b8063a98fb355116100de578063a98fb355146103ed578063aac4c5c414610400578063d5dba76d14610409578063dc9f6d241461041c57600080fd5b806394fb154a146103765780639926ee7d146103a4578063a364f4da146103b7578063a452b8e8146103ca57600080fd5b80635ac86ab7116101875780636e9aa81a116101565780636e9aa81a14610327578063715018a61461034a578063886f1195146103525780638da5cb5b1461036557600080fd5b80635ac86ab71461027c5780635c975abb146102af57806368304835146102c15780636b3aa72e1461030057600080fd5b80633bc28c8c116101c35780633bc28c8c1461023b5780634cd27ad51461024e5780634d44bd3114610261578063595c6a671461027457600080fd5b806310d67a2f146101ea578063136439dd146101ff57806333cfb7b714610212575b600080fd5b6101fd6101f8366004612151565b6104e4565b005b6101fd61020d366004612175565b6105a0565b610225610220366004612151565b6106df565b604051610232919061218e565b60405180910390f35b6101fd610249366004612151565b6106f0565b6101fd61025c3660046121db565b610701565b6101fd61026f36600461223e565b61076c565b6101fd610a10565b61029f61028a366004612289565b609854600160ff9092169190911b9081161490565b6040519015158152602001610232565b6098545b604051908152602001610232565b6102e87f000000000000000000000000000000000000000000000000000000000000000081565b6040516001600160a01b039091168152602001610232565b6102e87f000000000000000000000000000000000000000000000000000000000000000081565b61029f610335366004612175565b60cc6020526000908152604090205460ff1681565b6101fd610ad7565b6097546102e8906001600160a01b031681565b6033546001600160a01b03166102e8565b61029f6103843660046122ac565b60cd60209081526000928352604080842090915290825290205460ff1681565b6101fd6103b23660046123e1565b610aeb565b6101fd6103c5366004612151565b610b41565b61029f6103d8366004612175565b60cb6020526000908152604090205460ff1681565b6101fd6103fb36600461248b565b610b92565b6102b360c95481565b61029f610417366004612151565b610ba3565b6102b361042a366004612175565b60ca6020526000908152604090205481565b6101fd61044a3660046124db565b610cb9565b610225610fda565b61029f6104653660046122ac565b60ce60209081526000928352604080842090915290825290205460ff1681565b6101fd610493366004612151565b610fe9565b6101fd6104a6366004612175565b61105f565b6101fd6104b9366004612175565b611095565b6065546102e8906001600160a01b031681565b6101fd6104df36600461252d565b6111f1565b609760009054906101000a90046001600160a01b03166001600160a01b031663eab66d7a6040518163ffffffff1660e01b8152600401602060405180830381865afa158015610537573d6000803e3d6000fd5b505050506040513d601f19601f8201168201806040525081019061055b91906125a1565b6001600160a01b0316336001600160a01b0316146105945760405162461bcd60e51b815260040161058b906125be565b60405180910390fd5b61059d81611203565b50565b60975460405163237dfb4760e11b81523360048201526001600160a01b03909116906346fbf68e90602401602060405180830381865afa1580156105e8573d6000803e3d6000fd5b505050506040513d601f19601f8201168201806040525081019061060c9190612608565b6106285760405162461bcd60e51b815260040161058b9061262a565b609854818116146106a15760405162461bcd60e51b815260206004820152603860248201527f5061757361626c652e70617573653a20696e76616c696420617474656d70742060448201527f746f20756e70617573652066756e6374696f6e616c6974790000000000000000606482015260840161058b565b609881905560405181815233907fab40a374bc51de372200a8bc981af8c9ecdc08dfdaef0bb6e09f88f3c616ef3d906020015b60405180910390a250565b60606106ea826112fa565b92915050565b6106f8611626565b61059d81611680565b60c98054600090815260ca602090815260409182902085905591548151858152928301849052917fafa278e8ed772648a0f54815c3d0fa589f66454629b3be9405ed2e3d805bbeba910160405180910390a260c9805490600061076383612688565b91905055505050565b60405163ec7fbb3160e01b81523360048201527f00000000000000000000000000000000000000000000000000000000000000006001600160a01b03169063ec7fbb3190602401602060405180830381865afa1580156107d0573d6000803e3d6000fd5b505050506040513d601f19601f820116820180604052508101906107f49190612608565b15156001146108455760405162461bcd60e51b815260206004820152601b60248201527f4f70657261746f72206d757374206265207468652063616c6c65720000000000604482015260640161058b565b61084e33610ba3565b61086a5760405162461bcd60e51b815260040161058b906126a1565b33600090815260ce6020908152604080832086845290915290205460ff16156108ed5760405162461bcd60e51b815260206004820152602f60248201527f4f70657261746f722068617320616c726561647920766572696669656420746860448201526e32903234b21037b832b930ba34b7b760891b606482015260840161058b565b60006108f8846116e9565b9050600061093e84848080601f016020809104026020016040519081016040528093929190818152602001838380828437600092019190915250869392505061173c9050565b90506001600160a01b03811633146109985760405162461bcd60e51b815260206004820152601e60248201527f4d657373616765207369676e6572206973206e6f74206f70657261746f720000604482015260640161058b565b33600081815260ce6020908152604080832089845282528083208054600160ff19918216811790925560cc8452938290208054909416179092558151888152908101929092527f8c7adfb9de27ee4cbcc639846985ca99dc9fbe8fca0783d1d84d77e818721698910160405180910390a15050505050565b60975460405163237dfb4760e11b81523360048201526001600160a01b03909116906346fbf68e90602401602060405180830381865afa158015610a58573d6000803e3d6000fd5b505050506040513d601f19601f82011682018060405250810190610a7c9190612608565b610a985760405162461bcd60e51b815260040161058b9061262a565b600019609881905560405190815233907fab40a374bc51de372200a8bc981af8c9ecdc08dfdaef0bb6e09f88f3c616ef3d9060200160405180910390a2565b610adf611626565b610ae96000611760565b565b336001600160a01b037f00000000000000000000000000000000000000000000000000000000000000001614610b335760405162461bcd60e51b815260040161058b906126ef565b610b3d82826117b2565b5050565b336001600160a01b037f00000000000000000000000000000000000000000000000000000000000000001614610b895760405162461bcd60e51b815260040161058b906126ef565b61059d81611836565b610b9a611626565b61059d816118b5565b60007f00000000000000000000000000000000000000000000000000000000000000006001600160a01b03166340bf2fb76040518163ffffffff1660e01b8152600401602060405180830381865afa158015610c03573d6000803e3d6000fd5b505050506040513d601f19601f82011682018060405250810190610c27919061275f565b6040516398ec1ac960e01b81526001600160a01b0384811660048301527f000000000000000000000000000000000000000000000000000000000000000016906398ec1ac990602401602060405180830381865afa158015610c8d573d6000803e3d6000fd5b505050506040513d601f19601f82011682018060405250810190610cb1919061275f565b101592915050565b60405163ec7fbb3160e01b81523360048201527f00000000000000000000000000000000000000000000000000000000000000006001600160a01b03169063ec7fbb3190602401602060405180830381865afa158015610d1d573d6000803e3d6000fd5b505050506040513d601f19601f82011682018060405250810190610d419190612608565b1515600114610d925760405162461bcd60e51b815260206004820152601b60248201527f4f70657261746f72206d757374206265207468652063616c6c65720000000000604482015260640161058b565b610d9b33610ba3565b610db75760405162461bcd60e51b815260040161058b906126a1565b600084815260ca60205260409020548314610e3a5760405162461bcd60e51b815260206004820152603f60248201527f537570706c69656420616e63686f7220646f6573206e6f74206d61746368207460448201527f6865206f6e65207265636f7264656420696e2074686520636f6e747261637400606482015260840161058b565b33600090815260cd6020908152604080832086845290915290205460ff1615610eb65760405162461bcd60e51b815260206004820152602860248201527f4f70657261746f722068617320616c7265616479207665726966696564207468604482015267329030b731b437b960c11b606482015260840161058b565b6000610ec1846116e9565b90506000610f0784848080601f016020809104026020016040519081016040528093929190818152602001838380828437600092019190915250869392505061173c9050565b90506001600160a01b0381163314610f615760405162461bcd60e51b815260206004820152601e60248201527f4d657373616765207369676e6572206973206e6f74206f70657261746f720000604482015260640161058b565b33600081815260cd6020908152604080832089845282528083208054600160ff19918216811790925560cb8452938290208054909416179092558151888152908101929092527f8c7adfb9de27ee4cbcc639846985ca99dc9fbe8fca0783d1d84d77e818721698910160405180910390a1505050505050565b6060610fe4611901565b905090565b610ff1611626565b6001600160a01b0381166110565760405162461bcd60e51b815260206004820152602660248201527f4f776e61626c653a206e6577206f776e657220697320746865207a65726f206160448201526564647265737360d01b606482015260840161058b565b61059d81611760565b6040518181527f078a0f2a911e6d07154a71eaf49866fea6533b4f1d98ec5115b2254feb61aabc9060200160405180910390a150565b609760009054906101000a90046001600160a01b03166001600160a01b031663eab66d7a6040518163ffffffff1660e01b8152600401602060405180830381865afa1580156110e8573d6000803e3d6000fd5b505050506040513d601f19601f8201168201806040525081019061110c91906125a1565b6001600160a01b0316336001600160a01b03161461113c5760405162461bcd60e51b815260040161058b906125be565b6098541981196098541916146111ba5760405162461bcd60e51b815260206004820152603860248201527f5061757361626c652e756e70617573653a20696e76616c696420617474656d7060448201527f7420746f2070617573652066756e6374696f6e616c6974790000000000000000606482015260840161058b565b609881905560405181815233907f3582d1828e26bf56bd801502bc021ac0bc8afb57c826e4986b45593c8fad389c906020016106d4565b6111f9611a3e565b610b3d8282611ad8565b6001600160a01b0381166112915760405162461bcd60e51b815260206004820152604960248201527f5061757361626c652e5f73657450617573657252656769737472793a206e657760448201527f50617573657252656769737472792063616e6e6f7420626520746865207a65726064820152686f206164647265737360b81b608482015260a40161058b565b609754604080516001600160a01b03928316815291831660208301527f6e9fcd539896fca60e8b0f01dd580233e48a6b0f7df013b89ba7f565869acdb6910160405180910390a1609780546001600160a01b0319166001600160a01b0392909216919091179055565b606060007f00000000000000000000000000000000000000000000000000000000000000006001600160a01b0316631703a0186040518163ffffffff1660e01b8152600401600060405180830381865afa15801561135c573d6000803e3d6000fd5b505050506040513d6000823e601f3d908101601f1916820160405261138491908101906127b5565b8051519091506000816001600160401b038111156113a4576113a46122d8565b6040519080825280602002602001820160405280156113cd578160200160208202803683370190505b50905060005b8281101561142d5783518051829081106113ef576113ef6128b6565b60200260200101516000015182828151811061140d5761140d6128b6565b6001600160a01b03909216602092830291909101909101526001016113d3565b50604051639004134760e01b81526000906001600160a01b037f0000000000000000000000000000000000000000000000000000000000000000169063900413479061147f90899086906004016128cc565b600060405180830381865afa15801561149c573d6000803e3d6000fd5b505050506040513d6000823e601f3d908101601f191682016040526114c49190810190612928565b90506000836001600160401b038111156114e0576114e06122d8565b604051908082528060200260200182016040528015611509578160200160208202803683370190505b5090506000805b8581101561155057600084828151811061152c5761152c6128b6565b60200260200101511115611548578161154481612688565b9250505b600101611510565b506000816001600160401b0381111561156b5761156b6122d8565b604051908082528060200260200182016040528015611594578160200160208202803683370190505b50905060005b868110156116195760008582815181106115b6576115b66128b6565b60200260200101511115611611578381815181106115d6576115d66128b6565b60200260200101518282815181106115f0576115f06128b6565b60200260200101906001600160a01b031690816001600160a01b0316815250505b60010161159a565b5098975050505050505050565b6033546001600160a01b03163314610ae95760405162461bcd60e51b815260206004820181905260248201527f4f776e61626c653a2063616c6c6572206973206e6f7420746865206f776e6572604482015260640161058b565b606554604080516001600160a01b03928316815291831660208301527fe11cddf1816a43318ca175bbc52cd0185436e9cbead7c83acc54a73e461717e3910160405180910390a1606580546001600160a01b0319166001600160a01b0392909216919091179055565b6040517f19457468657265756d205369676e6564204d6573736167653a0a3332000000006020820152603c8101829052600090605c01604051602081830303815290604052805190602001209050919050565b600080600061174b8585611df2565b9150915061175881611e60565b509392505050565b603380546001600160a01b038381166001600160a01b0319831681179093556040519116919082907f8be0079c531659141344cd1fd0a4f28419497f9722a3daafe3b4186f6b6457e090600090a35050565b604051639926ee7d60e01b81526001600160a01b037f00000000000000000000000000000000000000000000000000000000000000001690639926ee7d9061180090859085906004016129fe565b600060405180830381600087803b15801561181a57600080fd5b505af115801561182e573d6000803e3d6000fd5b505050505050565b6040516351b27a6d60e11b81526001600160a01b0382811660048301527f0000000000000000000000000000000000000000000000000000000000000000169063a364f4da906024015b600060405180830381600087803b15801561189a57600080fd5b505af11580156118ae573d6000803e3d6000fd5b5050505050565b60405163a98fb35560e01b81526001600160a01b037f0000000000000000000000000000000000000000000000000000000000000000169063a98fb35590611880908490600401612a49565b606060007f00000000000000000000000000000000000000000000000000000000000000006001600160a01b0316631703a0186040518163ffffffff1660e01b8152600401600060405180830381865afa158015611963573d6000803e3d6000fd5b505050506040513d6000823e601f3d908101601f1916820160405261198b91908101906127b5565b905060008160000151516001600160401b038111156119ac576119ac6122d8565b6040519080825280602002602001820160405280156119d5578160200160208202803683370190505b50905060005b825151811015611a375782518051829081106119f9576119f96128b6565b602002602001015160000151828281518110611a1757611a176128b6565b6001600160a01b03909216602092830291909101909101526001016119db565b5092915050565b6065546001600160a01b03163314610ae95760405162461bcd60e51b815260206004820152605160248201527f4543445341536572766963654d616e61676572426173652e6f6e6c795265776160448201527f726473496e69746961746f723a2063616c6c6572206973206e6f7420746865206064820152703932bbb0b932399034b734ba34b0ba37b960791b608482015260a40161058b565b60005b81811015611da357828282818110611af557611af56128b6565b9050602002810190611b079190612a5c565b611b18906040810190602001612151565b6001600160a01b03166323b872dd3330868686818110611b3a57611b3a6128b6565b9050602002810190611b4c9190612a5c565b604080516001600160e01b031960e087901b1681526001600160a01b039485166004820152939092166024840152013560448201526064016020604051808303816000875af1158015611ba3573d6000803e3d6000fd5b505050506040513d601f19601f82011682018060405250810190611bc79190612608565b506000838383818110611bdc57611bdc6128b6565b9050602002810190611bee9190612a5c565b611bff906040810190602001612151565b604051636eb1769f60e11b81523060048201526001600160a01b037f000000000000000000000000000000000000000000000000000000000000000081166024830152919091169063dd62ed3e90604401602060405180830381865afa158015611c6d573d6000803e3d6000fd5b505050506040513d601f19601f82011682018060405250810190611c91919061275f565b9050838383818110611ca557611ca56128b6565b9050602002810190611cb79190612a5c565b611cc8906040810190602001612151565b6001600160a01b031663095ea7b37f000000000000000000000000000000000000000000000000000000000000000083878787818110611d0a57611d0a6128b6565b9050602002810190611d1c9190612a5c565b60400135611d2a9190612a8c565b6040516001600160e01b031960e085901b1681526001600160a01b03909216600483015260248201526044016020604051808303816000875af1158015611d75573d6000803e3d6000fd5b505050506040513d601f19601f82011682018060405250810190611d999190612608565b5050600101611adb565b5060405163fce36c7d60e01b81526001600160a01b037f0000000000000000000000000000000000000000000000000000000000000000169063fce36c7d906118009085908590600401612b1e565b6000808251604103611e285760208301516040840151606085015160001a611e1c87828585612016565b94509450505050611e59565b8251604003611e515760208301516040840151611e46868383612103565b935093505050611e59565b506000905060025b9250929050565b6000816004811115611e7457611e74612c1e565b03611e7c5750565b6001816004811115611e9057611e90612c1e565b03611edd5760405162461bcd60e51b815260206004820152601860248201527f45434453413a20696e76616c6964207369676e61747572650000000000000000604482015260640161058b565b6002816004811115611ef157611ef1612c1e565b03611f3e5760405162461bcd60e51b815260206004820152601f60248201527f45434453413a20696e76616c6964207369676e6174757265206c656e67746800604482015260640161058b565b6003816004811115611f5257611f52612c1e565b03611faa5760405162461bcd60e51b815260206004820152602260248201527f45434453413a20696e76616c6964207369676e6174757265202773272076616c604482015261756560f01b606482015260840161058b565b6004816004811115611fbe57611fbe612c1e565b0361059d5760405162461bcd60e51b815260206004820152602260248201527f45434453413a20696e76616c6964207369676e6174757265202776272076616c604482015261756560f01b606482015260840161058b565b6000807f7fffffffffffffffffffffffffffffff5d576e7357a4501ddfe92f46681b20a083111561204d57506000905060036120fa565b8460ff16601b1415801561206557508460ff16601c14155b1561207657506000905060046120fa565b6040805160008082526020820180845289905260ff881692820192909252606081018690526080810185905260019060a0016020604051602081039080840390855afa1580156120ca573d6000803e3d6000fd5b5050604051601f1901519150506001600160a01b0381166120f3576000600192509250506120fa565b9150600090505b94509492505050565b6000806001600160ff1b0383168161212060ff86901c601b612a8c565b905061212e87828885612016565b935093505050935093915050565b6001600160a01b038116811461059d57600080fd5b60006020828403121561216357600080fd5b813561216e8161213c565b9392505050565b60006020828403121561218757600080fd5b5035919050565b6020808252825182820181905260009190848201906040850190845b818110156121cf5783516001600160a01b0316835292840192918401916001016121aa565b50909695505050505050565b600080604083850312156121ee57600080fd5b50508035926020909101359150565b60008083601f84011261220f57600080fd5b5081356001600160401b0381111561222657600080fd5b602083019150836020828501011115611e5957600080fd5b60008060006040848603121561225357600080fd5b8335925060208401356001600160401b0381111561227057600080fd5b61227c868287016121fd565b9497909650939450505050565b60006020828403121561229b57600080fd5b813560ff8116811461216e57600080fd5b600080604083850312156122bf57600080fd5b82356122ca8161213c565b946020939093013593505050565b634e487b7160e01b600052604160045260246000fd5b604051606081016001600160401b0381118282101715612310576123106122d8565b60405290565b604051602081016001600160401b0381118282101715612310576123106122d8565b604080519081016001600160401b0381118282101715612310576123106122d8565b604051601f8201601f191681016001600160401b0381118282101715612382576123826122d8565b604052919050565b60006001600160401b038311156123a3576123a36122d8565b6123b6601f8401601f191660200161235a565b90508281528383830111156123ca57600080fd5b828260208301376000602084830101529392505050565b600080604083850312156123f457600080fd5b82356123ff8161213c565b915060208301356001600160401b038082111561241b57600080fd5b908401906060828703121561242f57600080fd5b6124376122ee565b82358281111561244657600080fd5b83019150601f8201871361245957600080fd5b6124688783356020850161238a565b815260208301356020820152604083013560408201528093505050509250929050565b60006020828403121561249d57600080fd5b81356001600160401b038111156124b357600080fd5b8201601f810184136124c457600080fd5b6124d38482356020840161238a565b949350505050565b600080600080606085870312156124f157600080fd5b843593506020850135925060408501356001600160401b0381111561251557600080fd5b612521878288016121fd565b95989497509550505050565b6000806020838503121561254057600080fd5b82356001600160401b038082111561255757600080fd5b818501915085601f83011261256b57600080fd5b81358181111561257a57600080fd5b8660208260051b850101111561258f57600080fd5b60209290920196919550909350505050565b6000602082840312156125b357600080fd5b815161216e8161213c565b6020808252602a908201527f6d73672e73656e646572206973206e6f74207065726d697373696f6e6564206160408201526939903ab73830bab9b2b960b11b606082015260800190565b60006020828403121561261a57600080fd5b8151801515811461216e57600080fd5b60208082526028908201527f6d73672e73656e646572206973206e6f74207065726d697373696f6e6564206160408201526739903830bab9b2b960c11b606082015260800190565b634e487b7160e01b600052601160045260246000fd5b60006001820161269a5761269a612672565b5060010190565b6020808252602e908201527f4f70657261746f7220646f6573206e6f74206d6565742074686520776569676860408201526d7420726571756972656d656e747360901b606082015260800190565b6020808252604a908201527f4543445341536572766963654d616e61676572426173652e6f6e6c795374616b60408201527f6552656769737472793a2063616c6c6572206973206e6f7420746865207374616060820152696b65526567697374727960b01b608082015260a00190565b60006020828403121561277157600080fd5b5051919050565b60006001600160401b03821115612791576127916122d8565b5060051b60200190565b6bffffffffffffffffffffffff8116811461059d57600080fd5b600060208083850312156127c857600080fd5b82516001600160401b03808211156127df57600080fd5b81850191508282870312156127f357600080fd5b6127fb612316565b82518281111561280a57600080fd5b80840193505086601f84011261281f57600080fd5b8251915061283461282f83612778565b61235a565b82815260069290921b8301840191848101908884111561285357600080fd5b938501935b838510156128a9576040858a0312156128715760008081fd5b612879612338565b85516128848161213c565b8152858701516128938161279b565b8188015282526040949094019390850190612858565b8252509695505050505050565b634e487b7160e01b600052603260045260246000fd5b6001600160a01b038381168252604060208084018290528451918401829052600092858201929091906060860190855b8181101561291a5785518516835294830194918301916001016128fc565b509098975050505050505050565b6000602080838503121561293b57600080fd5b82516001600160401b0381111561295157600080fd5b8301601f8101851361296257600080fd5b805161297061282f82612778565b81815260059190911b8201830190838101908783111561298f57600080fd5b928401925b828410156129ad57835182529284019290840190612994565b979650505050505050565b6000815180845260005b818110156129de576020818501810151868301820152016129c2565b506000602082860101526020601f19601f83011685010191505092915050565b60018060a01b0383168152604060208201526000825160606040840152612a2860a08401826129b8565b90506020840151606084015260408401516080840152809150509392505050565b60208152600061216e60208301846129b8565b60008235609e19833603018112612a7257600080fd5b9190910192915050565b8035612a878161213c565b919050565b808201808211156106ea576106ea612672565b8183526000602080850194508260005b85811015612aff578135612ac28161213c565b6001600160a01b0316875281830135612ada8161279b565b6bffffffffffffffffffffffff16878401526040968701969190910190600101612aaf565b509495945050505050565b803563ffffffff81168114612a8757600080fd5b60208082528181018390526000906040808401600586901b8501820187855b8881101561291a57878303603f190184528135368b9003609e19018112612b6357600080fd5b8a0160a0813536839003601e19018112612b7c57600080fd5b820188810190356001600160401b03811115612b9757600080fd5b8060061b3603821315612ba957600080fd5b828752612bb98388018284612a9f565b92505050612bc8888301612a7c565b6001600160a01b03168886015281870135878601526060612bea818401612b0a565b63ffffffff16908601526080612c01838201612b0a565b63ffffffff16950194909452509285019290850190600101612b3d565b634e487b7160e01b600052602160045260246000fdfea2646970667358221220f460533bdbd1dd603ad221a9c8ff994e84ca7eccf7d9fec901e4586b8f267b1864736f6c63430008180033","linkReferences":{}},"methodIdentifiers":{"anchorHash(bytes32,uint256)":"4cd27ad5","avsDirectory()":"6b3aa72e","createAVSRewardsSubmission(((address,uint96)[],address,uint256,uint32,uint32)[])":"fce36c7d","deregisterOperatorFromAVS(address)":"a364f4da","getOperatorRestakedStrategies(address)":"33cfb7b7","getRestakeableStrategies()":"e481af9d","newDIDOperation(bytes32)":"f83ce626","operatorHasMinimumWeight(address)":"d5dba76d","operatorVerifiedAnchors(address,bytes32)":"94fb154a","operatorVerifiedDidOperations(address,bytes32)":"f239e034","owner()":"8da5cb5b","pause(uint256)":"136439dd","pauseAll()":"595c6a67","paused()":"5c975abb","paused(uint8)":"5ac86ab7","pauserRegistry()":"886f1195","recordedAnchors(uint256)":"dc9f6d24","registerOperatorToAVS(address,(bytes,bytes32,uint256))":"9926ee7d","renounceOwnership()":"715018a6","rewardsInitiator()":"fc299dee","setPauserRegistry(address)":"10d67a2f","setRewardsInitiator(address)":"3bc28c8c","stakeRegistry()":"68304835","transactionNumber()":"aac4c5c4","transferOwnership(address)":"f2fde38b","unpause(uint256)":"fabc1cbc","updateAVSMetadataURI(string)":"a98fb355","verifiedAnchors(bytes32)":"a452b8e8","verifiedDIDOperations(bytes32)":"6e9aa81a","verifyAnchor(uint256,bytes32,bytes)":"e2b33715","verifyDIDOperation(bytes32,bytes)":"4d44bd31"},"id":81}